:100000000C9434000C9451000C9451000C94510049
:100010000C9451000C9451000C9451000C9451001C
:100020000C9451000C9451000C9451000C9451000C
:100030000C9451000C9451000C9451000C945100FC
:100040000C9451000C9451000C945E000C948F00A1
:100050000C9451000C9451000C9451000C945100DC
:100060000C9451000C94510011241FBECFEFD8E026
:10007000DEBFCDBF11E0A0E0B1E0E6E2F3E002C0F8
:1000800005900D92AE30B107D9F711E0AEE0B1E0C6
:1000900001C01D92A839B107E1F70E94F6000C9447
:1000A00091010C9400009093C5008093C40088EFE8
:1000B0008093C10086E08093C20008951F920F9242
:1000C0000FB60F9211242F933F934F935F938F930B
:1000D0009F93EF93FF932B9A3091C60020914F018D
:1000E000E22FF0E080914E01AF01481B51094034EE
:1000F000510541F0EF73F070E25FFE4F30832F5FE8
:1001000020934F01FF91EF919F918F915F914F91BC
:100110003F912F910F900FBE0F901F9018951F9237
:100120000F920FB60F9211248F939F93EF93FF932B
:100130002C9A9091900180919101981731F48091BF
:10014000C1008F7D8093C1000CC0E92FF0E0EF73F8
:10015000F070E05BFE4F80819F5F909390018093F1
:10016000C600FF91EF919F918F910F900FBE0F905E
:100170001F901895382FF89420919101E22FF0E00C
:1001800080919001AF01481B51094034510519F489
:100190002FEF3FEF0FC0EF73F070E05BFE4F308347
:1001A0002F5F209391018091C10080628093C100F4
:1001B00020E030E07894C9010895F89440914E0110
:1001C00080914F01481719F42EEF3FEF0CC0E42F38
:1001D000F0E0EF73F070E25FFE4F8081282F30E097
:1001E0004F5F40934E017894C9010895279A269A4B
:1001F000259A249A239A80E091E09093930180932A
:100200009201909395018093940182E08093C500C0
:1002100085EC8093C40088EF8093C10086E08093D2
:10022000C200789480919201909193010E942301E1
:100230002FEF8F3F9207B1F3609194017091950178
:100240000E946501EFCFCF93DF93EC014B8140FF1C
:100250001AC046FF0AC04F7B4B838E819F81019657
:100260009F838E838A81282F2BC042FF13C0E88191
:10027000F9818081282F332727FD309521153105FD
:1002800029F440624B832FEF3FEF1BC03196F98377
:10029000E88311C0EA85FB85CE0109959C0197FF93
:1002A0000AC09B812F5F3F4F11F080E201C080E1C7
:1002B000892B8B83E8CF8E819F8101969F838E83CC
:1002C00030E0C901DF91CF9108950F931F93CF9331
:1002D000DF938C01EB018B8181FF1BC082FF0DC07E
:1002E0002E813F818C819D812817390764F4E88134
:1002F000F9810193F983E88306C0E885F985802FA9
:100300000995892B31F48E819F8101969F838E837D
:1003100002C00FEF1FEFC801DF91CF911F910F9126
:060320000895F894FFCFE0
:0E0326000000000300000000BA00DD0000002F
:00000001FF
