:100000000C9434000C9446000C9446000C9446006A
:100010000C9446000C9446000C9446000C94460048
:100020000C9446000C9446000C9446000C94460038
:100030000C9446000C9446000C9446000C94460028
:100040000C9446000C9446000C947B000C94B60073
:100050000C9446000C9446000C9446000C94460008
:100060000C9446000C94460011241FBECFEFD8E03C
:10007000DEBFCDBF11E0A0E0B1E001C01D92A5310F
:10008000B107E1F70E94E0000C94F1000C9400002D
:10009000FC01148A0895DC0154968C9154978431A4
:1000A00010F081E00895FD01E80FF11D60838F5F7E
:1000B00054968C9380E00895FC01DB0184898823A9
:1000C00011F481E008958150848BE80FF11D808147
:1000D0008C9380E008951092C50087E68093C40059
:1000E000E2ECF0E0808186608083E1ECF0E08081EA
:1000F0008069808308951F920F920FB60F9211248A
:100100002F933F938F939F93EF93FF932D9A80E1CB
:1001100097E220E931E0F9013197F1F70197D9F73A
:100120002D989091C60080911401843150F4E82FED
:10013000F0E0E050FF4F90838F5F809314019E3278
:1001400051F48091C1008F768093C1008091C100ED
:1001500088628093C100FF91EF919F918F913F91B1
:100160002F910F900FBE0F901F9018951F920F9216
:100170000FB60F9211248F93EF93FF93E091140128
:10018000EE2351F0E150E0931401F0E0E050FF4F16
:1001900080818093C6000CC0109214018091C10030
:1001A000877D8093C1008091C10080698093C100E8
:1001B000FF91EF918F910F900FBE0F901F901895A8
:1001C000259A1092140183B7817F83BF0E946B0030
:1001D000789483B7816083BF889583B78E7F83BF10
:0601E000F8CFF894FFCFF8
:00000001FF
